{"abi":[{"type":"function","name":"RELATIVE_BROADCAST_PATH","inputs":[],"outputs":[{"name":"","type":"string","internalType":"string"}],"stateMutability":"view"},{"type":"function","name":"vm","inputs":[],"outputs":[{"name":"","type":"Vm","internalType":"contract Vm"}],"stateMutability":"view"}],"bytecode":{"object":"0x610263610053600b82828239805160001a607314610046577f4e487b7100000000000000000000000000000000000000000000000000000000600052600060045260246000fd5b30600052607381538281f3fe73000000000000000000000000000000000000000030146080604052600436106100405760003560e01c80632aa1c696146100455780633a76846314610063575b600080fd5b61004d610081565b60405161005a9190610171565b60405180910390f35b61006b6100ba565b6040516100789190610212565b60405180910390f35b6040518060400160405280600b81526020017f2e2f62726f61646361737400000000000000000000000000000000000000000081525081565b7f885cb69240a935d632d79c317109709ecfa91a80626ff3989d68f67f5b1dd12d60001c81565b600081519050919050565b600082825260208201905092915050565b60005b8381101561011b578082015181840152602081019050610100565b60008484015250505050565b6000601f19601f8301169050919050565b6000610143826100e1565b61014d81856100ec565b935061015d8185602086016100fd565b61016681610127565b840191505092915050565b6000602082019050818103600083015261018b8184610138565b905092915050565b600073ffffffffffffffffffffffffffffffffffffffff82169050919050565b6000819050919050565b60006101d86101d36101ce84610193565b6101b3565b610193565b9050919050565b60006101ea826101bd565b9050919050565b60006101fc826101df565b9050919050565b61020c816101f1565b82525050565b60006020820190506102276000830184610203565b9291505056fea2646970667358221220d69350325cf89b8f41937b02e4832fba81a769ec90ee93ca3ce84f9582cc648164736f6c63430008130033","linkReferences":{}},"methodIdentifiers":{"RELATIVE_BROADCAST_PATH()":"2aa1c696","vm()":"3a768463"},"id":33}