{"abi":[{"type":"constructor","inputs":[{"name":"raffleFee","type":"uint256","internalType":"uint256"},{"name":"interval","type":"uint256","internalType":"uint256"},{"name":"VRFCoordinator","type":"address","internalType":"address"},{"name":"keyHash","type":"bytes32","internalType":"bytes32"},{"name":"callbackGasLimit","type":"uint32","internalType":"uint32"},{"name":"subscriptionId","type":"uint256","internalType":"uint256"}],"stateMutability":"nonpayable"},{"type":"function","name":"acceptOwnership","inputs":[],"outputs":[],"stateMutability":"nonpayable"},{"type":"function","name":"checkUpkeep","inputs":[{"name":"","type":"bytes","internalType":"bytes"}],"outputs":[{"name":"upkeepNeeded","type":"bool","internalType":"bool"},{"name":"","type":"bytes","internalType":"bytes"}],"stateMutability":"view"},{"type":"function","name":"enterRaffle","inputs":[],"outputs":[],"stateMutability":"payable"},{"type":"function","name":"getLastTimeStamp","inputs":[],"outputs":[{"name":"","type":"uint256","internalType":"uint256"}],"stateMutability":"view"},{"type":"function","name":"getNumberOfEntrants","inputs":[],"outputs":[{"name":"","type":"uint256","internalType":"uint256"}],"stateMutability":"view"},{"type":"function","name":"getRaffleState","inputs":[],"outputs":[{"name":"","type":"uint8","internalType":"enum Raffle.RaffleState"}],"stateMutability":"view"},{"type":"function","name":"getRecentWinner","inputs":[],"outputs":[{"name":"","type":"address","internalType":"address"}],"stateMutability":"view"},{"type":"function","name":"owner","inputs":[],"outputs":[{"name":"","type":"address","internalType":"address"}],"stateMutability":"view"},{"type":"function","name":"performUpkeep","inputs":[{"name":"","type":"bytes","internalType":"bytes"}],"outputs":[],"stateMutability":"nonpayable"},{"type":"function","name":"rawFulfillRandomWords","inputs":[{"name":"requestId","type":"uint256","internalType":"uint256"},{"name":"randomWords","type":"uint256[]","internalType":"uint256[]"}],"outputs":[],"stateMutability":"nonpayable"},{"type":"function","name":"s_vrfCoordinator","inputs":[],"outputs":[{"name":"","type":"address","internalType":"contract IVRFCoordinatorV2Plus"}],"stateMutability":"view"},{"type":"function","name":"setCoordinator","inputs":[{"name":"_vrfCoordinator","type":"address","internalType":"address"}],"outputs":[],"stateMutability":"nonpayable"},{"type":"function","name":"transferOwnership","inputs":[{"name":"to","type":"address","internalType":"address"}],"outputs":[],"stateMutability":"nonpayable"},{"type":"event","name":"CoordinatorSet","inputs":[{"name":"vrfCoordinator","type":"address","indexed":false,"internalType":"address"}],"anonymous":false},{"type":"event","name":"OwnershipTransferRequested","inputs":[{"name":"from","type":"address","indexed":true,"internalType":"address"},{"name":"to","type":"address","indexed":true,"internalType":"address"}],"anonymous":false},{"type":"event","name":"OwnershipTransferred","inputs":[{"name":"from","type":"address","indexed":true,"internalType":"address"},{"name":"to","type":"address","indexed":true,"internalType":"address"}],"anonymous":false},{"type":"event","name":"RaffleEntered","inputs":[{"name":"player","type":"address","indexed":true,"internalType":"address"}],"anonymous":false},{"type":"event","name":"RecentWinner","inputs":[{"name":"winner","type":"address","indexed":true,"internalType":"address"}],"anonymous":false},{"type":"event","name":"RequestedRaffleWinner","inputs":[{"name":"requestId","type":"uint256","indexed":true,"internalType":"uint256"}],"anonymous":false},{"type":"error","name":"OnlyCoordinatorCanFulfill","inputs":[{"name":"have","type":"address","internalType":"address"},{"name":"want","type":"address","internalType":"address"}]},{"type":"error","name":"OnlyOwnerOrCoordinator","inputs":[{"name":"have","type":"address","internalType":"address"},{"name":"owner","type":"address","internalType":"address"},{"name":"coordinator","type":"address","internalType":"address"}]},{"type":"error","name":"Raffle__EntranceFeeNotMet","inputs":[]},{"type":"error","name":"Raffle__RaffleNotOpen","inputs":[]},{"type":"error","name":"Raffle__TransactionFailed","inputs":[]},{"type":"error","name":"Raffle__UpkeepNotNeeded","inputs":[]},{"type":"error","name":"ZeroAddress","inputs":[]}],"bytecode":{"object":"0x610120604052426004556000600560146101000a81548160ff0219169083600181111562000032576200003162000383565b5b02179055503480156200004457600080fd5b50604051620022d0380380620022d083398181016040528101906200006a9190620004d3565b83338060008073ffffffffffffffffffffffffffffffffffffffff168273ffffffffffffffffffffffffffffffffffffffff1603620000e0576040517f08c379a0000000000000000000000000000000000000000000000000000000008152600401620000d790620005d0565b60405180910390fd5b816000806101000a81548173ffffffffffffffffffffffffffffffffffffffff021916908373ffffffffffffffffffffffffffffffffffffffff160217905550600073ffffffffffffffffffffffffffffffffffffffff168173ffffffffffffffffffffffffffffffffffffffff1614620001675762000166816200025460201b60201c565b5b505050600073ffffffffffffffffffffffffffffffffffffffff168173ffffffffffffffffffffffffffffffffffffffff1603620001d1576040517fd92e233d00000000000000000000000000000000000000000000000000000000815260040160405180910390fd5b80600260006101000a81548173ffffffffffffffffffffffffffffffffffffffff021916908373ffffffffffffffffffffffffffffffffffffffff160217905550508560a0818152505084608081815250508260c081815250508060e081815250508163ffffffff166101008163ffffffff168152505050505050505062000664565b3373ffffffffffffffffffffffffffffffffffffffff168173ffffffffffffffffffffffffffffffffffffffff1603620002c5576040517f08c379a0000000000000000000000000000000000000000000000000000000008152600401620002bc9062000642565b60405180910390fd5b80600160006101000a81548173ffffffffffffffffffffffffffffffffffffffff021916908373ffffffffffffffffffffffffffffffffffffffff1602179055508073ffffffffffffffffffffffffffffffffffffffff1660008054906101000a900473ffffffffffffffffffffffffffffffffffffffff1673ffffffffffffffffffffffffffffffffffffffff167fed8889f560326eb138920d842192f0eb3dd22b4f139c87a2c57538e05bae127860405160405180910390a350565b7f4e487b7100000000000000000000000000000000000000000000000000000000600052602160045260246000fd5b600080fd5b6000819050919050565b620003cc81620003b7565b8114620003d857600080fd5b50565b600081519050620003ec81620003c1565b92915050565b600073ffffffffffffffffffffffffffffffffffffffff82169050919050565b60006200041f82620003f2565b9050919050565b620004318162000412565b81146200043d57600080fd5b50565b600081519050620004518162000426565b92915050565b6000819050919050565b6200046c8162000457565b81146200047857600080fd5b50565b6000815190506200048c8162000461565b92915050565b600063ffffffff82169050919050565b620004ad8162000492565b8114620004b957600080fd5b50565b600081519050620004cd81620004a2565b92915050565b60008060008060008060c08789031215620004f357620004f2620003b2565b5b60006200050389828a01620003db565b96505060206200051689828a01620003db565b95505060406200052989828a0162000440565b94505060606200053c89828a016200047b565b93505060806200054f89828a01620004bc565b92505060a06200056289828a01620003db565b9150509295509295509295565b600082825260208201905092915050565b7f43616e6e6f7420736574206f776e657220746f207a65726f0000000000000000600082015250565b6000620005b86018836200056f565b9150620005c58262000580565b602082019050919050565b60006020820190508181036000830152620005eb81620005a9565b9050919050565b7f43616e6e6f74207472616e7366657220746f2073656c66000000000000000000600082015250565b60006200062a6017836200056f565b91506200063782620005f2565b602082019050919050565b600060208201905081810360008301526200065d816200061b565b9050919050565b60805160a05160c05160e05161010051611c27620006a9600039600061060a015260006105d9015260006105b3015260006103b8015260006107ae0152611c276000f3fe6080604052600436106100c25760003560e01c80636e04ff0d1161007f5780638ea98117116100595780638ea98117146102245780639eccacf61461024d578063c1c244e814610278578063f2fde38b146102a3576100c2565b80636e04ff0d146101a457806379ba5097146101e25780638da5cb5b146101f9576100c2565b80630dae9574146100c7578063115cbaf5146100f25780631fe543e31461011d5780632cfcc539146101465780634585e33b14610150578063473f1ddc14610179575b600080fd5b3480156100d357600080fd5b506100dc6102cc565b6040516100e9919061114b565b60405180910390f35b3480156100fe57600080fd5b506101076102d9565b60405161011491906111dd565b60405180910390f35b34801561012957600080fd5b50610144600480360381019061013f919061129d565b6102f0565b005b61014e6103b6565b005b34801561015c57600080fd5b5061017760048036038101906101729190611353565b610525565b005b34801561018557600080fd5b5061018e610736565b60405161019b91906113e1565b60405180910390f35b3480156101b057600080fd5b506101cb60048036038101906101c6919061153d565b610760565b6040516101d9929190611620565b60405180910390f35b3480156101ee57600080fd5b506101f7610821565b005b34801561020557600080fd5b5061020e6109b6565b60405161021b91906113e1565b60405180910390f35b34801561023057600080fd5b5061024b6004803603810190610246919061167c565b6109df565b005b34801561025957600080fd5b50610262610bc0565b60405161026f9190611708565b60405180910390f35b34801561028457600080fd5b5061028d610be6565b60405161029a919061114b565b60405180910390f35b3480156102af57600080fd5b506102ca60048036038101906102c5919061167c565b610bf0565b005b6000600380549050905090565b6000600560149054906101000a900460ff16905090565b600260009054906101000a900473ffffffffffffffffffffffffffffffffffffffff1673ffffffffffffffffffffffffffffffffffffffff163373ffffffffffffffffffffffffffffffffffffffff16146103a65733600260009054906101000a900473ffffffffffffffffffffffffffffffffffffffff166040517f1cf993f400000000000000000000000000000000000000000000000000000000815260040161039d929190611723565b60405180910390fd5b6103b1838383610c04565b505050565b7f0000000000000000000000000000000000000000000000000000000000000000341015610410576040517fb8d326fa00000000000000000000000000000000000000000000000000000000815260040160405180910390fd5b6000600181111561042457610423611166565b5b600560149054906101000a900460ff16600181111561044657610445611166565b5b1461047d576040517fd24a271400000000000000000000000000000000000000000000000000000000815260040160405180910390fd5b6003339080600181540180825580915050600190039060005260206000200160009091909190916101000a81548173ffffffffffffffffffffffffffffffffffffffff021916908373ffffffffffffffffffffffffffffffffffffffff1602179055503373ffffffffffffffffffffffffffffffffffffffff167f634f3211e3a4e43fee5a21ad9f87ca153b300fc78b1c557a2057dbe9c63bcb4760405160405180910390a2565b600061053f60405180602001604052806000815250610760565b50905080610579576040517f8e4bc81700000000000000000000000000000000000000000000000000000000815260040160405180910390fd5b6001600560146101000a81548160ff0219169083600181111561059f5761059e611166565b5b021790555060006040518060c001604052807f000000000000000000000000000000000000000000000000000000000000000081526020017f00000000000000000000000000000000000000000000000000000000000000008152602001600361ffff1681526020017f000000000000000000000000000000000000000000000000000000000000000063ffffffff168152602001600163ffffffff16815260200161065b604051806020016040528060001515815250610e37565b81525090506000600260009054906101000a900473ffffffffffffffffffffffffffffffffffffffff1673ffffffffffffffffffffffffffffffffffffffff16639b1c385e836040518263ffffffff1660e01b81526004016106bd9190611883565b6020604051808303816000875af11580156106dc573d6000803e3d6000fd5b505050506040513d601f19601f8201168201806040525081019061070091906118ba565b9050807fcd6e45c8998311cab7e9d4385596cac867e20a0587194b954fa3a731c93ce78b60405160405180910390a25050505050565b6000600560009054906101000a900473ffffffffffffffffffffffffffffffffffffffff16905090565b60006060600080600380549050119050600080600181111561078557610784611166565b5b600560149054906101000a900460ff1660018111156107a7576107a6611166565b5b14905060007f0000000000000000000000000000000000000000000000000000000000000000600454426107db9190611916565b119050600080471190508380156107ef5750825b80156107f85750815b80156108015750805b955085604051806020016040528060008152509550955050505050915091565b600160009054906101000a900473ffffffffffffffffffffffffffffffffffffffff1673ffffffffffffffffffffffffffffffffffffffff163373ffffffffffffffffffffffffffffffffffffffff16146108b1576040517f08c379a00000000000000000000000000000000000000000000000000000000081526004016108a8906119a7565b60405180910390fd5b60008060009054906101000a900473ffffffffffffffffffffffffffffffffffffffff169050336000806101000a81548173ffffffffffffffffffffffffffffffffffffffff021916908373ffffffffffffffffffffffffffffffffffffffff1602179055506000600160006101000a81548173ffffffffffffffffffffffffffffffffffffffff021916908373ffffffffffffffffffffffffffffffffffffffff1602179055503373ffffffffffffffffffffffffffffffffffffffff168173ffffffffffffffffffffffffffffffffffffffff167f8be0079c531659141344cd1fd0a4f28419497f9722a3daafe3b4186f6b6457e060405160405180910390a350565b60008060009054906101000a900473ffffffffffffffffffffffffffffffffffffffff16905090565b6109e76109b6565b73ffffffffffffffffffffffffffffffffffffffff163373ffffffffffffffffffffffffffffffffffffffff1614158015610a705750600260009054906101000a900473ffffffffffffffffffffffffffffffffffffffff1673ffffffffffffffffffffffffffffffffffffffff163373ffffffffffffffffffffffffffffffffffffffff1614155b15610adf5733610a7e6109b6565b600260009054906101000a900473ffffffffffffffffffffffffffffffffffffffff166040517f061db9c1000000000000000000000000000000000000000000000000000000008152600401610ad6939291906119c7565b60405180910390fd5b600073ffffffffffffffffffffffffffffffffffffffff168173ffffffffffffffffffffffffffffffffffffffff1603610b45576040517fd92e233d00000000000000000000000000000000000000000000000000000000815260040160405180910390fd5b80600260006101000a81548173ffffffffffffffffffffffffffffffffffffffff021916908373ffffffffffffffffffffffffffffffffffffffff1602179055507fd1a6a14209a385a964d036e404cb5cfb71f4000cdb03c9366292430787261be681604051610bb591906113e1565b60405180910390a150565b600260009054906101000a900473ffffffffffffffffffffffffffffffffffffffff1681565b6000600454905090565b610bf8610ecf565b610c0181610f5f565b50565b600060038054905083836000818110610c2057610c1f6119fe565b5b90506020020135610c319190611a5c565b9050600060038281548110610c4957610c486119fe565b5b9060005260206000200160009054906101000a900473ffffffffffffffffffffffffffffffffffffffff1690506000600560146101000a81548160ff02191690836001811115610c9c57610c9b611166565b5b021790555060008173ffffffffffffffffffffffffffffffffffffffff1647604051610cc790611abe565b60006040518083038185875af1925050503d8060008114610d04576040519150601f19603f3d011682016040523d82523d6000602084013e610d09565b606091505b5050905080610d44576040517f8dea0f0700000000000000000000000000000000000000000000000000000000815260040160405180910390fd5b81600560006101000a81548173ffffffffffffffffffffffffffffffffffffffff021916908373ffffffffffffffffffffffffffffffffffffffff16021790555042600481905550600067ffffffffffffffff811115610da757610da6611412565b5b604051908082528060200260200182016040528015610dd55781602001602082028036833780820191505090505b5060039080519060200190610deb92919061108b565b508173ffffffffffffffffffffffffffffffffffffffff167f71945ad93dd7daff7e0de5e333eff60625118c1eddc0ebb3931a656d1c05e06f60405160405180910390a2505050505050565b60607f92fd13387c7fe7befbc38d303d6468778fb9731bc4583f17d92989c6fcfdeaaa82604051602401610e6b9190611afe565b604051602081830303815290604052907bffffffffffffffffffffffffffffffffffffffffffffffffffffffff19166020820180517bffffffffffffffffffffffffffffffffffffffffffffffffffffffff83818316178352505050509050919050565b60008054906101000a900473ffffffffffffffffffffffffffffffffffffffff1673ffffffffffffffffffffffffffffffffffffffff163373ffffffffffffffffffffffffffffffffffffffff1614610f5d576040517f08c379a0000000000000000000000000000000000000000000000000000000008152600401610f5490611b65565b60405180910390fd5b565b3373ffffffffffffffffffffffffffffffffffffffff168173ffffffffffffffffffffffffffffffffffffffff1603610fcd576040517f08c379a0000000000000000000000000000000000000000000000000000000008152600401610fc490611bd1565b60405180910390fd5b80600160006101000a81548173ffffffffffffffffffffffffffffffffffffffff021916908373ffffffffffffffffffffffffffffffffffffffff1602179055508073ffffffffffffffffffffffffffffffffffffffff1660008054906101000a900473ffffffffffffffffffffffffffffffffffffffff1673ffffffffffffffffffffffffffffffffffffffff167fed8889f560326eb138920d842192f0eb3dd22b4f139c87a2c57538e05bae127860405160405180910390a350565b828054828255906000526020600020908101928215611104579160200282015b828111156111035782518260006101000a81548173ffffffffffffffffffffffffffffffffffffffff021916908373ffffffffffffffffffffffffffffffffffffffff160217905550916020019190600101906110ab565b5b5090506111119190611115565b5090565b5b8082111561112e576000816000905550600101611116565b5090565b6000819050919050565b61114581611132565b82525050565b6000602082019050611160600083018461113c565b92915050565b7f4e487b7100000000000000000000000000000000000000000000000000000000600052602160045260246000fd5b600281106111a6576111a5611166565b5b50565b60008190506111b782611195565b919050565b60006111c7826111a9565b9050919050565b6111d7816111bc565b82525050565b60006020820190506111f260008301846111ce565b92915050565b6000604051905090565b600080fd5b600080fd5b61121581611132565b811461122057600080fd5b50565b6000813590506112328161120c565b92915050565b600080fd5b600080fd5b600080fd5b60008083601f84011261125d5761125c611238565b5b8235905067ffffffffffffffff81111561127a5761127961123d565b5b60208301915083602082028301111561129657611295611242565b5b9250929050565b6000806000604084860312156112b6576112b5611202565b5b60006112c486828701611223565b935050602084013567ffffffffffffffff8111156112e5576112e4611207565b5b6112f186828701611247565b92509250509250925092565b60008083601f84011261131357611312611238565b5b8235905067ffffffffffffffff8111156113305761132f61123d565b5b60208301915083600182028301111561134c5761134b611242565b5b9250929050565b6000806020838503121561136a57611369611202565b5b600083013567ffffffffffffffff81111561138857611387611207565b5b611394858286016112fd565b92509250509250929050565b600073ffffffffffffffffffffffffffffffffffffffff82169050919050565b60006113cb826113a0565b9050919050565b6113db816113c0565b82525050565b60006020820190506113f660008301846113d2565b92915050565b600080fd5b6000601f19601f8301169050919050565b7f4e487b7100000000000000000000000000000000000000000000000000000000600052604160045260246000fd5b61144a82611401565b810181811067ffffffffffffffff8211171561146957611468611412565b5b80604052505050565b600061147c6111f8565b90506114888282611441565b919050565b600067ffffffffffffffff8211156114a8576114a7611412565b5b6114b182611401565b9050602081019050919050565b82818337600083830152505050565b60006114e06114db8461148d565b611472565b9050828152602081018484840111156114fc576114fb6113fc565b5b6115078482856114be565b509392505050565b600082601f83011261152457611523611238565b5b81356115348482602086016114cd565b91505092915050565b60006020828403121561155357611552611202565b5b600082013567ffffffffffffffff81111561157157611570611207565b5b61157d8482850161150f565b91505092915050565b60008115159050919050565b61159b81611586565b82525050565b600081519050919050565b600082825260208201905092915050565b60005b838110156115db5780820151818401526020810190506115c0565b60008484015250505050565b60006115f2826115a1565b6115fc81856115ac565b935061160c8185602086016115bd565b61161581611401565b840191505092915050565b60006040820190506116356000830185611592565b818103602083015261164781846115e7565b90509392505050565b611659816113c0565b811461166457600080fd5b50565b60008135905061167681611650565b92915050565b60006020828403121561169257611691611202565b5b60006116a084828501611667565b91505092915050565b6000819050919050565b60006116ce6116c96116c4846113a0565b6116a9565b6113a0565b9050919050565b60006116e0826116b3565b9050919050565b60006116f2826116d5565b9050919050565b611702816116e7565b82525050565b600060208201905061171d60008301846116f9565b92915050565b600060408201905061173860008301856113d2565b61174560208301846113d2565b9392505050565b6000819050919050565b61175f8161174c565b82525050565b61176e81611132565b82525050565b600061ffff82169050919050565b61178b81611774565b82525050565b600063ffffffff82169050919050565b6117aa81611791565b82525050565b600082825260208201905092915050565b60006117cc826115a1565b6117d681856117b0565b93506117e68185602086016115bd565b6117ef81611401565b840191505092915050565b600060c0830160008301516118126000860182611756565b5060208301516118256020860182611765565b5060408301516118386040860182611782565b50606083015161184b60608601826117a1565b50608083015161185e60808601826117a1565b5060a083015184820360a086015261187682826117c1565b9150508091505092915050565b6000602082019050818103600083015261189d81846117fa565b905092915050565b6000815190506118b48161120c565b92915050565b6000602082840312156118d0576118cf611202565b5b60006118de848285016118a5565b91505092915050565b7f4e487b7100000000000000000000000000000000000000000000000000000000600052601160045260246000fd5b600061192182611132565b915061192c83611132565b9250828203905081811115611944576119436118e7565b5b92915050565b600082825260208201905092915050565b7f4d7573742062652070726f706f736564206f776e657200000000000000000000600082015250565b600061199160168361194a565b915061199c8261195b565b602082019050919050565b600060208201905081810360008301526119c081611984565b9050919050565b60006060820190506119dc60008301866113d2565b6119e960208301856113d2565b6119f660408301846113d2565b949350505050565b7f4e487b7100000000000000000000000000000000000000000000000000000000600052603260045260246000fd5b7f4e487b7100000000000000000000000000000000000000000000000000000000600052601260045260246000fd5b6000611a6782611132565b9150611a7283611132565b925082611a8257611a81611a2d565b5b828206905092915050565b600081905092915050565b50565b6000611aa8600083611a8d565b9150611ab382611a98565b600082019050919050565b6000611ac982611a9b565b9150819050919050565b611adc81611586565b82525050565b602082016000820151611af86000850182611ad3565b50505050565b6000602082019050611b136000830184611ae2565b92915050565b7f4f6e6c792063616c6c61626c65206279206f776e657200000000000000000000600082015250565b6000611b4f60168361194a565b9150611b5a82611b19565b602082019050919050565b60006020820190508181036000830152611b7e81611b42565b9050919050565b7f43616e6e6f74207472616e7366657220746f2073656c66000000000000000000600082015250565b6000611bbb60178361194a565b9150611bc682611b85565b602082019050919050565b60006020820190508181036000830152611bea81611bae565b905091905056fea2646970667358221220b1637279f8edc9c10ed86114d08890b38c6208aceaec925d635085d95ad9cff264736f6c63430008130033","linkReferences":{}},"methodIdentifiers":{"acceptOwnership()":"79ba5097","checkUpkeep(bytes)":"6e04ff0d","enterRaffle()":"2cfcc539","getLastTimeStamp()":"c1c244e8","getNumberOfEntrants()":"0dae9574","getRaffleState()":"115cbaf5","getRecentWinner()":"473f1ddc","owner()":"8da5cb5b","performUpkeep(bytes)":"4585e33b","rawFulfillRandomWords(uint256,uint256[])":"1fe543e3","s_vrfCoordinator()":"9eccacf6","setCoordinator(address)":"8ea98117","transferOwnership(address)":"f2fde38b"},"id":44}