{"abi":[{"type":"constructor","inputs":[{"name":"_baseFee","type":"uint96","internalType":"uint96"},{"name":"_gasPrice","type":"uint96","internalType":"uint96"},{"name":"_weiPerUnitLink","type":"int256","internalType":"int256"}],"stateMutability":"nonpayable"},{"type":"function","name":"LINK","inputs":[],"outputs":[{"name":"","type":"address","internalType":"contract LinkTokenInterface"}],"stateMutability":"view"},{"type":"function","name":"LINK_NATIVE_FEED","inputs":[],"outputs":[{"name":"","type":"address","internalType":"contract AggregatorV3Interface"}],"stateMutability":"view"},{"type":"function","name":"MAX_CONSUMERS","inputs":[],"outputs":[{"name":"","type":"uint16","internalType":"uint16"}],"stateMutability":"view"},{"type":"function","name":"acceptOwnership","inputs":[],"outputs":[],"stateMutability":"nonpayable"},{"type":"function","name":"acceptSubscriptionOwnerTransfer","inputs":[{"name":"subId","type":"uint256","internalType":"uint256"}],"outputs":[],"stateMutability":"nonpayable"},{"type":"function","name":"addConsumer","inputs":[{"name":"subId","type":"uint256","internalType":"uint256"},{"name":"consumer","type":"address","internalType":"address"}],"outputs":[],"stateMutability":"nonpayable"},{"type":"function","name":"cancelSubscription","inputs":[{"name":"_subId","type":"uint256","internalType":"uint256"},{"name":"_to","type":"address","internalType":"address"}],"outputs":[],"stateMutability":"nonpayable"},{"type":"function","name":"consumerIsAdded","inputs":[{"name":"_subId","type":"uint256","internalType":"uint256"},{"name":"_consumer","type":"address","internalType":"address"}],"outputs":[{"name":"","type":"bool","internalType":"bool"}],"stateMutability":"view"},{"type":"function","name":"createSubscription","inputs":[],"outputs":[{"name":"subId","type":"uint256","internalType":"uint256"}],"stateMutability":"nonpayable"},{"type":"function","name":"fulfillRandomWords","inputs":[{"name":"_requestId","type":"uint256","internalType":"uint256"},{"name":"_consumer","type":"address","internalType":"address"}],"outputs":[],"stateMutability":"nonpayable"},{"type":"function","name":"fulfillRandomWordsWithOverride","inputs":[{"name":"_requestId","type":"uint256","internalType":"uint256"},{"name":"_consumer","type":"address","internalType":"address"},{"name":"_words","type":"uint256[]","internalType":"uint256[]"}],"outputs":[],"stateMutability":"nonpayable"},{"type":"function","name":"fundSubscription","inputs":[{"name":"_subId","type":"uint256","internalType":"uint256"},{"name":"_amount","type":"uint256","internalType":"uint256"}],"outputs":[],"stateMutability":"nonpayable"},{"type":"function","name":"fundSubscriptionWithNative","inputs":[{"name":"subId","type":"uint256","internalType":"uint256"}],"outputs":[],"stateMutability":"payable"},{"type":"function","name":"getActiveSubscriptionIds","inputs":[{"name":"startIndex","type":"uint256","internalType":"uint256"},{"name":"maxCount","type":"uint256","internalType":"uint256"}],"outputs":[{"name":"ids","type":"uint256[]","internalType":"uint256[]"}],"stateMutability":"view"},{"type":"function","name":"getSubscription","inputs":[{"name":"subId","type":"uint256","internalType":"uint256"}],"outputs":[{"name":"balance","type":"uint96","internalType":"uint96"},{"name":"nativeBalance","type":"uint96","internalType":"uint96"},{"name":"reqCount","type":"uint64","internalType":"uint64"},{"name":"subOwner","type":"address","internalType":"address"},{"name":"consumers","type":"address[]","internalType":"address[]"}],"stateMutability":"view"},{"type":"function","name":"i_base_fee","inputs":[],"outputs":[{"name":"","type":"uint96","internalType":"uint96"}],"stateMutability":"view"},{"type":"function","name":"i_gas_price","inputs":[],"outputs":[{"name":"","type":"uint96","internalType":"uint96"}],"stateMutability":"view"},{"type":"function","name":"i_wei_per_unit_link","inputs":[],"outputs":[{"name":"","type":"int256","internalType":"int256"}],"stateMutability":"view"},{"type":"function","name":"onTokenTransfer","inputs":[{"name":"","type":"address","internalType":"address"},{"name":"amount","type":"uint256","internalType":"uint256"},{"name":"data","type":"bytes","internalType":"bytes"}],"outputs":[],"stateMutability":"nonpayable"},{"type":"function","name":"owner","inputs":[],"outputs":[{"name":"","type":"address","internalType":"address"}],"stateMutability":"view"},{"type":"function","name":"ownerCancelSubscription","inputs":[{"name":"subId","type":"uint256","internalType":"uint256"}],"outputs":[],"stateMutability":"nonpayable"},{"type":"function","name":"pendingRequestExists","inputs":[{"name":"","type":"uint256","internalType":"uint256"}],"outputs":[{"name":"","type":"bool","internalType":"bool"}],"stateMutability":"pure"},{"type":"function","name":"recoverFunds","inputs":[{"name":"to","type":"address","internalType":"address"}],"outputs":[],"stateMutability":"nonpayable"},{"type":"function","name":"recoverNativeFunds","inputs":[{"name":"to","type":"address","internalType":"address payable"}],"outputs":[],"stateMutability":"nonpayable"},{"type":"function","name":"removeConsumer","inputs":[{"name":"_subId","type":"uint256","internalType":"uint256"},{"name":"_consumer","type":"address","internalType":"address"}],"outputs":[],"stateMutability":"nonpayable"},{"type":"function","name":"requestRandomWords","inputs":[{"name":"_req","type":"tuple","internalType":"struct VRFV2PlusClient.RandomWordsRequest","components":[{"name":"keyHash","type":"bytes32","internalType":"bytes32"},{"name":"subId","type":"uint256","internalType":"uint256"},{"name":"requestConfirmations","type":"uint16","internalType":"uint16"},{"name":"callbackGasLimit","type":"uint32","internalType":"uint32"},{"name":"numWords","type":"uint32","internalType":"uint32"},{"name":"extraArgs","type":"bytes","internalType":"bytes"}]}],"outputs":[{"name":"","type":"uint256","internalType":"uint256"}],"stateMutability":"nonpayable"},{"type":"function","name":"requestSubscriptionOwnerTransfer","inputs":[{"name":"subId","type":"uint256","internalType":"uint256"},{"name":"newOwner","type":"address","internalType":"address"}],"outputs":[],"stateMutability":"nonpayable"},{"type":"function","name":"s_config","inputs":[],"outputs":[{"name":"minimumRequestConfirmations","type":"uint16","internalType":"uint16"},{"name":"maxGasLimit","type":"uint32","internalType":"uint32"},{"name":"reentrancyLock","type":"bool","internalType":"bool"},{"name":"stalenessSeconds","type":"uint32","internalType":"uint32"},{"name":"gasAfterPaymentCalculation","type":"uint32","internalType":"uint32"},{"name":"fulfillmentFlatFeeNativePPM","type":"uint32","internalType":"uint32"},{"name":"fulfillmentFlatFeeLinkDiscountPPM","type":"uint32","internalType":"uint32"},{"name":"nativePremiumPercentage","type":"uint8","internalType":"uint8"},{"name":"linkPremiumPercentage","type":"uint8","internalType":"uint8"}],"stateMutability":"view"},{"type":"function","name":"s_currentSubNonce","inputs":[],"outputs":[{"name":"","type":"uint64","internalType":"uint64"}],"stateMutability":"view"},{"type":"function","name":"s_totalBalance","inputs":[],"outputs":[{"name":"","type":"uint96","internalType":"uint96"}],"stateMutability":"view"},{"type":"function","name":"s_totalNativeBalance","inputs":[],"outputs":[{"name":"","type":"uint96","internalType":"uint96"}],"stateMutability":"view"},{"type":"function","name":"setConfig","inputs":[],"outputs":[],"stateMutability":"nonpayable"},{"type":"function","name":"setLINKAndLINKNativeFeed","inputs":[{"name":"link","type":"address","internalType":"address"},{"name":"linkNativeFeed","type":"address","internalType":"address"}],"outputs":[],"stateMutability":"nonpayable"},{"type":"function","name":"transferOwnership","inputs":[{"name":"to","type":"address","internalType":"address"}],"outputs":[],"stateMutability":"nonpayable"},{"type":"function","name":"withdraw","inputs":[{"name":"recipient","type":"address","internalType":"address"}],"outputs":[],"stateMutability":"nonpayable"},{"type":"function","name":"withdrawNative","inputs":[{"name":"recipient","type":"address","internalType":"address payable"}],"outputs":[],"stateMutability":"nonpayable"},{"type":"event","name":"ConfigSet","inputs":[],"anonymous":false},{"type":"event","name":"FundsRecovered","inputs":[{"name":"to","type":"address","indexed":false,"internalType":"address"},{"name":"amount","type":"uint256","indexed":false,"internalType":"uint256"}],"anonymous":false},{"type":"event","name":"NativeFundsRecovered","inputs":[{"name":"to","type":"address","indexed":false,"internalType":"address"},{"name":"amount","type":"uint256","indexed":false,"internalType":"uint256"}],"anonymous":false},{"type":"event","name":"OwnershipTransferRequested","inputs":[{"name":"from","type":"address","indexed":true,"internalType":"address"},{"name":"to","type":"address","indexed":true,"internalType":"address"}],"anonymous":false},{"type":"event","name":"OwnershipTransferred","inputs":[{"name":"from","type":"address","indexed":true,"internalType":"address"},{"name":"to","type":"address","indexed":true,"internalType":"address"}],"anonymous":false},{"type":"event","name":"RandomWordsFulfilled","inputs":[{"name":"requestId","type":"uint256","indexed":true,"internalType":"uint256"},{"name":"outputSeed","type":"uint256","indexed":false,"internalType":"uint256"},{"name":"subId","type":"uint256","indexed":true,"internalType":"uint256"},{"name":"payment","type":"uint96","indexed":false,"internalType":"uint96"},{"name":"nativePayment","type":"bool","indexed":false,"internalType":"bool"},{"name":"success","type":"bool","indexed":false,"internalType":"bool"},{"name":"onlyPremium","type":"bool","indexed":false,"internalType":"bool"}],"anonymous":false},{"type":"event","name":"RandomWordsRequested","inputs":[{"name":"keyHash","type":"bytes32","indexed":true,"internalType":"bytes32"},{"name":"requestId","type":"uint256","indexed":false,"internalType":"uint256"},{"name":"preSeed","type":"uint256","indexed":false,"internalType":"uint256"},{"name":"subId","type":"uint256","indexed":true,"internalType":"uint256"},{"name":"minimumRequestConfirmations","type":"uint16","indexed":false,"internalType":"uint16"},{"name":"callbackGasLimit","type":"uint32","indexed":false,"internalType":"uint32"},{"name":"numWords","type":"uint32","indexed":false,"internalType":"uint32"},{"name":"extraArgs","type":"bytes","indexed":false,"internalType":"bytes"},{"name":"sender","type":"address","indexed":true,"internalType":"address"}],"anonymous":false},{"type":"event","name":"SubscriptionCanceled","inputs":[{"name":"subId","type":"uint256","indexed":true,"internalType":"uint256"},{"name":"to","type":"address","indexed":false,"internalType":"address"},{"name":"amountLink","type":"uint256","indexed":false,"internalType":"uint256"},{"name":"amountNative","type":"uint256","indexed":false,"internalType":"uint256"}],"anonymous":false},{"type":"event","name":"SubscriptionConsumerAdded","inputs":[{"name":"subId","type":"uint256","indexed":true,"internalType":"uint256"},{"name":"consumer","type":"address","indexed":false,"internalType":"address"}],"anonymous":false},{"type":"event","name":"SubscriptionConsumerRemoved","inputs":[{"name":"subId","type":"uint256","indexed":true,"internalType":"uint256"},{"name":"consumer","type":"address","indexed":false,"internalType":"address"}],"anonymous":false},{"type":"event","name":"SubscriptionCreated","inputs":[{"name":"subId","type":"uint256","indexed":true,"internalType":"uint256"},{"name":"owner","type":"address","indexed":false,"internalType":"address"}],"anonymous":false},{"type":"event","name":"SubscriptionFunded","inputs":[{"name":"subId","type":"uint256","indexed":true,"internalType":"uint256"},{"name":"oldBalance","type":"uint256","indexed":false,"internalType":"uint256"},{"name":"newBalance","type":"uint256","indexed":false,"internalType":"uint256"}],"anonymous":false},{"type":"event","name":"SubscriptionFundedWithNative","inputs":[{"name":"subId","type":"uint256","indexed":true,"internalType":"uint256"},{"name":"oldNativeBalance","type":"uint256","indexed":false,"internalType":"uint256"},{"name":"newNativeBalance","type":"uint256","indexed":false,"internalType":"uint256"}],"anonymous":false},{"type":"event","name":"SubscriptionOwnerTransferRequested","inputs":[{"name":"subId","type":"uint256","indexed":true,"internalType":"uint256"},{"name":"from","type":"address","indexed":false,"internalType":"address"},{"name":"to","type":"address","indexed":false,"internalType":"address"}],"anonymous":false},{"type":"event","name":"SubscriptionOwnerTransferred","inputs":[{"name":"subId","type":"uint256","indexed":true,"internalType":"uint256"},{"name":"from","type":"address","indexed":false,"internalType":"address"},{"name":"to","type":"address","indexed":false,"internalType":"address"}],"anonymous":false},{"type":"error","name":"BalanceInvariantViolated","inputs":[{"name":"internalBalance","type":"uint256","internalType":"uint256"},{"name":"externalBalance","type":"uint256","internalType":"uint256"}]},{"type":"error","name":"FailedToSendNative","inputs":[]},{"type":"error","name":"FailedToTransferLink","inputs":[]},{"type":"error","name":"IndexOutOfRange","inputs":[]},{"type":"error","name":"InsufficientBalance","inputs":[]},{"type":"error","name":"InvalidCalldata","inputs":[]},{"type":"error","name":"InvalidConsumer","inputs":[{"name":"subId","type":"uint256","internalType":"uint256"},{"name":"consumer","type":"address","internalType":"address"}]},{"type":"error","name":"InvalidExtraArgsTag","inputs":[]},{"type":"error","name":"InvalidRandomWords","inputs":[]},{"type":"error","name":"InvalidRequest","inputs":[]},{"type":"error","name":"InvalidSubscription","inputs":[]},{"type":"error","name":"LinkAlreadySet","inputs":[]},{"type":"error","name":"LinkNotSet","inputs":[]},{"type":"error","name":"MustBeRequestedOwner","inputs":[{"name":"proposedOwner","type":"address","internalType":"address"}]},{"type":"error","name":"MustBeSubOwner","inputs":[{"name":"owner","type":"address","internalType":"address"}]},{"type":"error","name":"NotImplemented","inputs":[]},{"type":"error","name":"OnlyCallableFromLink","inputs":[]},{"type":"error","name":"PendingRequestExists","inputs":[]},{"type":"error","name":"Reentrant","inputs":[]},{"type":"error","name":"TooManyConsumers","inputs":[]}],"bytecode":{"object":"0x60e06040526001600e556064600f553480156200001b57600080fd5b50604051620069e7380380620069e78339818101604052810190620000419190620005f3565b338060008073ffffffffffffffffffffffffffffffffffffffff168273ffffffffffffffffffffffffffffffffffffffff1603620000b6576040517f08c379a0000000000000000000000000000000000000000000000000000000008152600401620000ad90620006b0565b60405180910390fd5b816000806101000a81548173ffffffffffffffffffffffffffffffffffffffff021916908373ffffffffffffffffffffffffffffffffffffffff160217905550600073ffffffffffffffffffffffffffffffffffffffff168173ffffffffffffffffffffffffffffffffffffffff16146200013d576200013c81620001a960201b60201c565b5b505050826bffffffffffffffffffffffff166080816bffffffffffffffffffffffff1681525050816bffffffffffffffffffffffff1660a0816bffffffffffffffffffffffff16815250508060c08181525050620001a0620002d860201b60201c565b505050620007b6565b3373ffffffffffffffffffffffffffffffffffffffff168173ffffffffffffffffffffffffffffffffffffffff16036200021a576040517f08c379a0000000000000000000000000000000000000000000000000000000008152600401620002119062000722565b60405180910390fd5b80600160006101000a81548173ffffffffffffffffffffffffffffffffffffffff021916908373ffffffffffffffffffffffffffffffffffffffff1602179055508073ffffffffffffffffffffffffffffffffffffffff1660008054906101000a900473ffffffffffffffffffffffffffffffffffffffff1673ffffffffffffffffffffffffffffffffffffffff167fed8889f560326eb138920d842192f0eb3dd22b4f139c87a2c57538e05bae127860405160405180910390a350565b620002e8620004d760201b60201c565b604051806101200160405280600061ffff168152602001600063ffffffff168152602001600015158152602001600063ffffffff168152602001600063ffffffff168152602001600063ffffffff168152602001600063ffffffff168152602001600060ff168152602001600060ff16815250600c60008201518160000160006101000a81548161ffff021916908361ffff16021790555060208201518160000160026101000a81548163ffffffff021916908363ffffffff16021790555060408201518160000160066101000a81548160ff02191690831515021790555060608201518160000160076101000a81548163ffffffff021916908363ffffffff160217905550608082015181600001600b6101000a81548163ffffffff021916908363ffffffff16021790555060a082015181600001600f6101000a81548163ffffffff021916908363ffffffff16021790555060c08201518160000160136101000a81548163ffffffff021916908363ffffffff16021790555060e08201518160000160176101000a81548160ff021916908360ff1602179055506101008201518160000160186101000a81548160ff021916908360ff1602179055509050507f4b2974a542484cba2783812ff8033f7fc682cac2fe0905c28c5e27869b3155be60405160405180910390a1565b60008054906101000a900473ffffffffffffffffffffffffffffffffffffffff1673ffffffffffffffffffffffffffffffffffffffff163373ffffffffffffffffffffffffffffffffffffffff161462000568576040517f08c379a00000000000000000000000000000000000000000000000000000000081526004016200055f9062000794565b60405180910390fd5b565b600080fd5b60006bffffffffffffffffffffffff82169050919050565b62000592816200056f565b81146200059e57600080fd5b50565b600081519050620005b28162000587565b92915050565b6000819050919050565b620005cd81620005b8565b8114620005d957600080fd5b50565b600081519050620005ed81620005c2565b92915050565b6000806000606084860312156200060f576200060e6200056a565b5b60006200061f86828701620005a1565b93505060206200063286828701620005a1565b92505060406200064586828701620005dc565b9150509250925092565b600082825260208201905092915050565b7f43616e6e6f7420736574206f776e657220746f207a65726f0000000000000000600082015250565b6000620006986018836200064f565b9150620006a58262000660565b602082019050919050565b60006020820190508181036000830152620006cb8162000689565b9050919050565b7f43616e6e6f74207472616e7366657220746f2073656c66000000000000000000600082015250565b60006200070a6017836200064f565b91506200071782620006d2565b602082019050919050565b600060208201905081810360008301526200073d81620006fb565b9050919050565b7f4f6e6c792063616c6c61626c65206279206f776e657200000000000000000000600082015250565b60006200077c6016836200064f565b9150620007898262000744565b602082019050919050565b60006020820190508181036000830152620007af816200076d565b9050919050565b60805160a05160c0516161ec620007fb60003960008181610d66015261116b015260008181610ce101526135f3015260008181610d2601526111d301526161ec6000f3fe60806040526004361061020f5760003560e01c80638b673e7a11610118578063aefb212f116100a0578063dac83d291161006f578063dac83d2914610748578063dc311dd314610771578063dcab3dcf146107b2578063e72f6e30146107dd578063f2fde38b146108065761020f565b8063aefb212f14610690578063b2a7cac5146106cd578063bec4c08c146106f6578063cb6317971461071f5761020f565b80639b1c385e116100e75780639b1c385e146105ab5780639d40a6fd146105e8578063a21a23e414610613578063a4c0ed361461063e578063aa433aff146106675761020f565b80638b673e7a146105105780638da5cb5b14610527578063953e9c751461055257806395b55cfc1461058f5761020f565b806341af6c871161019b57806372e9d5651161016a57806372e9d5651461045157806379ba50971461047c578063808974ff146104935780638402595e146104bc57806386fe91c7146104e55761020f565b806341af6c871461039757806351cff8d9146103d457806364d51a2a146103fd57806365982744146104285761020f565b806313478329116101e257806313478329146102c257806318e3dd27146102ed5780631b6b6d23146103185780631eebc117146103435780632f622e6b1461036e5761020f565b8063088070f51461021457806308e3898e146102475780630ae0954014610270578063115e3c0d14610299575b600080fd5b34801561022057600080fd5b5061022961082f565b60405161023e99989796959493929190614977565b60405180910390f35b34801561025357600080fd5b5061026e60048036038101906102699190614c05565b6108f0565b005b34801561027c57600080fd5b5061029760048036038101906102929190614c74565b610e69565b005b3480156102a557600080fd5b506102c060048036038101906102bb9190614cb4565b610f80565b005b3480156102ce57600080fd5b506102d7611169565b6040516102e49190614d0d565b60405180910390f35b3480156102f957600080fd5b5061030261118d565b60405161030f9190614d4f565b60405180910390f35b34801561032457600080fd5b5061032d6111ab565b60405161033a9190614dc9565b60405180910390f35b34801561034f57600080fd5b506103586111d1565b6040516103659190614d4f565b60405180910390f35b34801561037a57600080fd5b5061039560048036038101906103909190614e22565b6111f5565b005b3480156103a357600080fd5b506103be60048036038101906103b99190614e4f565b6113ea565b6040516103cb9190614e7c565b60405180910390f35b3480156103e057600080fd5b506103fb60048036038101906103f69190614e97565b61141e565b005b34801561040957600080fd5b506104126116bf565b60405161041f9190614ec4565b60405180910390f35b34801561043457600080fd5b5061044f600480360381019061044a9190614edf565b6116c4565b005b34801561045d57600080fd5b506104666117da565b6040516104739190614f40565b60405180910390f35b34801561048857600080fd5b50610491611800565b005b34801561049f57600080fd5b506104ba60048036038101906104b59190614c74565b611995565b005b3480156104c857600080fd5b506104e360048036038101906104de9190614e22565b6119f5565b005b3480156104f157600080fd5b506104fa611b72565b6040516105079190614d4f565b60405180910390f35b34801561051c57600080fd5b50610525611b90565b005b34801561053357600080fd5b5061053c611d87565b6040516105499190614f6a565b60405180910390f35b34801561055e57600080fd5b5061057960048036038101906105749190614c74565b611db0565b6040516105869190614e7c565b60405180910390f35b6105a960048036038101906105a49190614e4f565b611e1b565b005b3480156105b757600080fd5b506105d260048036038101906105cd9190614fa9565b61200b565b6040516105df9190615001565b60405180910390f35b3480156105f457600080fd5b506105fd612338565b60405161060a919061503f565b60405180910390f35b34801561061f57600080fd5b50610628612352565b6040516106359190615001565b60405180910390f35b34801561064a57600080fd5b50610665600480360381019061066091906150b5565b61268a565b005b34801561067357600080fd5b5061068e60048036038101906106899190614e4f565b612955565b005b34801561069c57600080fd5b506106b760048036038101906106b29190614cb4565b612a0c565b6040516106c491906151e7565b60405180910390f35b3480156106d957600080fd5b506106f460048036038101906106ef9190614e4f565b612b40565b005b34801561070257600080fd5b5061071d60048036038101906107189190614c74565b612dae565b005b34801561072b57600080fd5b5061074660048036038101906107419190614c74565b612f4c565b005b34801561075457600080fd5b5061076f600480360381019061076a9190614c74565b61330b565b005b34801561077d57600080fd5b5061079860048036038101906107939190614e4f565b61340f565b6040516107a99594939291906152c7565b60405180910390f35b3480156107be57600080fd5b506107c76135f1565b6040516107d49190614d4f565b60405180910390f35b3480156107e957600080fd5b5061080460048036038101906107ff9190614e97565b613615565b005b34801561081257600080fd5b5061082d60048036038101906108289190614e97565b6138e7565b005b600c8060000160009054906101000a900461ffff16908060000160029054906101000a900463ffffffff16908060000160069054906101000a900460ff16908060000160079054906101000a900463ffffffff169080600001600b9054906101000a900463ffffffff169080600001600f9054906101000a900463ffffffff16908060000160139054906101000a900463ffffffff16908060000160179054906101000a900460ff16908060000160189054906101000a900460ff16905089565b60005a90506000601060008681526020019081526020016000206000015403610945576040517f41abc80100000000000000000000000000000000000000000000000000000000815260040160405180910390fd5b600060106000868152602001908152602001600020604051806080016040529081600082015481526020016001820160009054906101000a900463ffffffff1663ffffffff1663ffffffff1681526020016001820160049054906101000a900463ffffffff1663ffffffff1663ffffffff1681526020016002820180546109cb90615350565b80601f01602080910402602001604051908101604052809291908181526020018280546109f790615350565b8015610a445780601f10610a1957610100808354040283529160200191610a44565b820191906000526020600020905b815481529060010190602001808311610a2757829003601f168201915b50505050508152505090506000835103610b2657806040015163ffffffff1667ffffffffffffffff811115610a7c57610a7b614ac2565b5b604051908082528060200260200182016040528015610aaa5781602001602082028036833780820191505090505b50925060005b816040015163ffffffff16811015610b20578581604051602001610ad5929190615381565b6040516020818303038152906040528051906020012060001c848281518110610b0157610b006153aa565b5b6020026020010181815250508080610b1890615408565b915050610ab0565b50610b6b565b806040015163ffffffff16835114610b6a576040517f3f3df5b600000000000000000000000000000000000000000000000000000000815260040160405180910390fd5b5b600080631fe543e360e01b8786604051602401610b89929190615450565b604051602081830303815290604052907bffffffffffffffffffffffffffffffffffffffffffffffffffffffff19166020820180517bffffffffffffffffffffffffffffffffffffffffffffffffffffffff838183161783525050505090506001600c60000160066101000a81548160ff02191690831515021790555060008673ffffffffffffffffffffffffffffffffffffffff16846020015163ffffffff1683604051610c3891906154f1565b60006040518083038160008787f1925050503d8060008114610c76576040519150601f19603f3d011682016040523d82523d6000602084013e610c7b565b606091505b505090506000600c60000160066101000a81548160ff0219169083151502179055506000600185606001516001876060015151610cb89190615508565b81518110610cc957610cc86153aa565b5b602001015160f81c60f81b60f81c60ff1614905060007f00000000000000000000000000000000000000000000000000000000000000006bffffffffffffffffffffffff165a88610d1a9190615508565b610d24919061553c565b7f00000000000000000000000000000000000000000000000000000000000000006bffffffffffffffffffffffff16610d5d919061557e565b905081610da6577f000000000000000000000000000000000000000000000000000000000000000081670de0b6b3a7640000610d99919061553c565b610da391906155e1565b90505b6000819050610dba818489600001516138fb565b601060008c81526020019081526020016000206000808201600090556001820160006101000a81549063ffffffff02191690556001820160046101000a81549063ffffffff0219169055600282016000610e1491906147e7565b505086600001518b7faeb4b4786571e184246d39587f659abf0e26f41f6a3358692250382c0cdb47b78d8487896000604051610e54959493929190615612565b60405180910390a35050505050505050505050565b81610e7381613b3e565b610e7b613c53565b600080610e8785613c9f565b9150915060008473ffffffffffffffffffffffffffffffffffffffff16826bffffffffffffffffffffffff16604051610ebf9061568b565b60006040518083038185875af1925050503d8060008114610efc576040519150601f19603f3d011682016040523d82523d6000602084013e610f01565b606091505b5050905080610f3c576040517f950b247900000000000000000000000000000000000000000000000000000000815260040160405180910390fd5b857f8c74ce8b8cf87f5eb001275c8be27eb34ea2b62bfab6814fcc62192bb63e81c4868585604051610f70939291906156d1565b60405180910390a2505050505050565b600073ffffffffffffffffffffffffffffffffffffffff166005600084815260200190815260200160002060000160009054906101000a900473ffffffffffffffffffffffffffffffffffffffff1673ffffffffffffffffffffffffffffffffffffffff160361101c576040517f1f6a65b600000000000000000000000000000000000000000000000000000000815260040160405180910390fd5b60006006600084815260200190815260200160002060000160009054906101000a90046bffffffffffffffffffffffff166bffffffffffffffffffffffff169050816006600085815260200190815260200160002060000160008282829054906101000a90046bffffffffffffffffffffffff1661109a9190615708565b92506101000a8154816bffffffffffffffffffffffff02191690836bffffffffffffffffffffffff16021790555081600a60008282829054906101000a90046bffffffffffffffffffffffff166110f19190615708565b92506101000a8154816bffffffffffffffffffffffff02191690836bffffffffffffffffffffffff160217905550827f1ced9348ff549fceab2ac57cd3a9de38edaaab274b725ee82c23e8fc8c4eec7a82848461114e919061557e565b60405161115c929190615381565b60405180910390a2505050565b7f000000000000000000000000000000000000000000000000000000000000000081565b600a600c9054906101000a90046bffffffffffffffffffffffff1681565b600260009054906101000a900473ffffffffffffffffffffffffffffffffffffffff1681565b7f000000000000000000000000000000000000000000000000000000000000000081565b6111fd613c53565b611205613ff9565b6000600b600c9054906101000a90046bffffffffffffffffffffffff166bffffffffffffffffffffffff1603611267576040517ff4d678b800000000000000000000000000000000000000000000000000000000815260040160405180910390fd5b6000600b600c9054906101000a90046bffffffffffffffffffffffff16905080600b600c8282829054906101000a90046bffffffffffffffffffffffff166112af9190615748565b92506101000a8154816bffffffffffffffffffffffff02191690836bffffffffffffffffffffffff16021790555080600a600c8282829054906101000a90046bffffffffffffffffffffffff166113069190615748565b92506101000a8154816bffffffffffffffffffffffff02191690836bffffffffffffffffffffffff16021790555060008273ffffffffffffffffffffffffffffffffffffffff16826bffffffffffffffffffffffff166040516113689061568b565b60006040518083038185875af1925050503d80600081146113a5576040519150601f19603f3d011682016040523d82523d6000602084013e6113aa565b606091505b50509050806113e5576040517f950b247900000000000000000000000000000000000000000000000000000000815260040160405180910390fd5b505050565b60006040517fd623472500000000000000000000000000000000000000000000000000000000815260040160405180910390fd5b611426613c53565b61142e613ff9565b600073ffffffffffffffffffffffffffffffffffffffff16600260009054906101000a900473ffffffffffffffffffffffffffffffffffffffff1673ffffffffffffffffffffffffffffffffffffffff16036114b6576040517fc1f0c0a100000000000000000000000000000000000000000000000000000000815260040160405180910390fd5b6000600b60009054906101000a90046bffffffffffffffffffffffff166bffffffffffffffffffffffff1603611518576040517ff4d678b800000000000000000000000000000000000000000000000000000000815260040160405180910390fd5b6000600b60009054906101000a90046bffffffffffffffffffffffff16905080600b60008282829054906101000a90046bffffffffffffffffffffffff166115609190615748565b92506101000a8154816bffffffffffffffffffffffff02191690836bffffffffffffffffffffffff16021790555080600a60008282829054906101000a90046bffffffffffffffffffffffff166115b79190615748565b92506101000a8154816bffffffffffffffffffffffff02191690836bffffffffffffffffffffffff160217905550600260009054906101000a900473ffffffffffffffffffffffffffffffffffffffff1673ffffffffffffffffffffffffffffffffffffffff1663a9059cbb83836040518363ffffffff1660e01b8152600401611642929190615788565b6020604051808303816000875af1158015611661573d6000803e3d6000fd5b505050506040513d601f19601f8201168201806040525081019061168591906157dd565b6116bb576040517ff4d678b800000000000000000000000000000000000000000000000000000000815260040160405180910390fd5b5050565b606481565b6116cc613ff9565b600073ffffffffffffffffffffffffffffffffffffffff16600260009054906101000a900473ffffffffffffffffffffffffffffffffffffffff1673ffffffffffffffffffffffffffffffffffffffff1614611754576040517f2d118a6e00000000000000000000000000000000000000000000000000000000815260040160405180910390fd5b81600260006101000a81548173ffffffffffffffffffffffffffffffffffffffff021916908373ffffffffffffffffffffffffffffffffffffffff16021790555080600360006101000a81548173ffffffffffffffffffffffffffffffffffffffff021916908373ffffffffffffffffffffffffffffffffffffffff1602179055505050565b600360009054906101000a900473ffffffffffffffffffffffffffffffffffffffff1681565b600160009054906101000a900473ffffffffffffffffffffffffffffffffffffffff1673ffffffffffffffffffffffffffffffffffffffff163373ffffffffffffffffffffffffffffffffffffffff1614611890576040517f08c379a000000000000000000000000000000000000000000000000000000000815260040161188790615867565b60405180910390fd5b60008060009054906101000a900473ffffffffffffffffffffffffffffffffffffffff169050336000806101000a81548173ffffffffffffffffffffffffffffffffffffffff021916908373ffffffffffffffffffffffffffffffffffffffff1602179055506000600160006101000a81548173ffffffffffffffffffffffffffffffffffffffff021916908373ffffffffffffffffffffffffffffffffffffffff1602179055503373ffffffffffffffffffffffffffffffffffffffff168173ffffffffffffffffffffffffffffffffffffffff167f8be0079c531659141344cd1fd0a4f28419497f9722a3daafe3b4186f6b6457e060405160405180910390a350565b61199d613c53565b6119f18282600067ffffffffffffffff8111156119bd576119bc614ac2565b5b6040519080825280602002602001820160405280156119eb5781602001602082028036833780820191505090505b506108f0565b5050565b6119fd613ff9565b60004790506000600a600c9054906101000a90046bffffffffffffffffffffffff166bffffffffffffffffffffffff16905081811115611a765780826040517fa99da302000000000000000000000000000000000000000000000000000000008152600401611a6d929190615381565b60405180910390fd5b81811015611b6d5760008183611a8c9190615508565b905060008473ffffffffffffffffffffffffffffffffffffffff1682604051611ab49061568b565b60006040518083038185875af1925050503d8060008114611af1576040519150601f19603f3d011682016040523d82523d6000602084013e611af6565b606091505b5050905080611b31576040517f950b247900000000000000000000000000000000000000000000000000000000815260040160405180910390fd5b7f4aed7c8eed0496c8c19ea2681fcca25741c1602342e38b045d9f1e8e905d2e9c8583604051611b629291906158a8565b60405180910390a150505b505050565b600a60009054906101000a90046bffffffffffffffffffffffff1681565b611b98613ff9565b604051806101200160405280600061ffff168152602001600063ffffffff168152602001600015158152602001600063ffffffff168152602001600063ffffffff168152602001600063ffffffff168152602001600063ffffffff168152602001600060ff168152602001600060ff16815250600c60008201518160000160006101000a81548161ffff021916908361ffff16021790555060208201518160000160026101000a81548163ffffffff021916908363ffffffff16021790555060408201518160000160066101000a81548160ff02191690831515021790555060608201518160000160076101000a81548163ffffffff021916908363ffffffff160217905550608082015181600001600b6101000a81548163ffffffff021916908363ffffffff16021790555060a082015181600001600f6101000a81548163ffffffff021916908363ffffffff16021790555060c08201518160000160136101000a81548163ffffffff021916908363ffffffff16021790555060e08201518160000160176101000a81548160ff021916908360ff1602179055506101008201518160000160186101000a81548160ff021916908360ff1602179055509050507f4b2974a542484cba2783812ff8033f7fc682cac2fe0905c28c5e27869b3155be60405160405180910390a1565b60008060009054906101000a900473ffffffffffffffffffffffffffffffffffffffff16905090565b6000600460008373ffffffffffffffffffffffffffffffffffffffff1673ffffffffffffffffffffffffffffffffffffffff168152602001908152602001600020600084815260200190815260200160002060000160009054906101000a900460ff16905092915050565b611e23613c53565b600073ffffffffffffffffffffffffffffffffffffffff166005600083815260200190815260200160002060000160009054906101000a900473ffffffffffffffffffffffffffffffffffffffff1673ffffffffffffffffffffffffffffffffffffffff1603611ebf576040517f1f6a65b600000000000000000000000000000000000000000000000000000000815260040160405180910390fd5b600060066000838152602001908152602001600020600001600c9054906101000a90046bffffffffffffffffffffffff166bffffffffffffffffffffffff1690503460066000848152602001908152602001600020600001600c8282829054906101000a90046bffffffffffffffffffffffff16611f3d9190615708565b92506101000a8154816bffffffffffffffffffffffff02191690836bffffffffffffffffffffffff16021790555034600a600c8282829054906101000a90046bffffffffffffffffffffffff16611f949190615708565b92506101000a8154816bffffffffffffffffffffffff02191690836bffffffffffffffffffffffff160217905550817f7603b205d03651ee812f803fccde89f1012e545a9c99f0abfea9cedd0fd8e902823484611ff1919061557e565b604051611fff929190615381565b60405180910390a25050565b6000612015613c53565b8160200135336120258282611db0565b6120685781816040517f79bfd40100000000000000000000000000000000000000000000000000000000815260040161205f9291906158d1565b60405180910390fd5b600084602001359050600073ffffffffffffffffffffffffffffffffffffffff166005600083815260200190815260200160002060000160009054906101000a900473ffffffffffffffffffffffffffffffffffffffff1673ffffffffffffffffffffffffffffffffffffffff160361210d576040517f1f6a65b600000000000000000000000000000000000000000000000000000000815260040160405180910390fd5b6000600e600081548092919061212290615408565b9190505590506000600f600081548092919061213d90615408565b9190505590506000612165612160898060a0019061215b9190615909565b614089565b614181565b905060405180608001604052808960200135815260200189606001602081019061218f9190615998565b63ffffffff1681526020018960800160208101906121ad9190615998565b63ffffffff168152602001898060a001906121c89190615909565b8080601f016020809104026020016040519081016040528093929190818152602001838380828437600081840152601f19601f82011690508083019250505050505050815250601060008581526020019081526020016000206000820151816000015560208201518160010160006101000a81548163ffffffff021916908363ffffffff16021790555060408201518160010160046101000a81548163ffffffff021916908363ffffffff160217905550606082015181600201908161228e9190615b67565b509050503373ffffffffffffffffffffffffffffffffffffffff16886020013589600001357feb0e3652e0f44f417695e6e90f2f42c99b65cd7169074c5a654b16b9748c3a4e86868d60400160208101906122e99190615c65565b8e60600160208101906122fc9190615998565b8f608001602081019061230f9190615998565b8960405161232296959493929190615cdc565b60405180910390a4829650505050505050919050565b600760009054906101000a900467ffffffffffffffff1681565b600061235c613c53565b6000600760009054906101000a900467ffffffffffffffff169050336001436123859190615508565b40308360405160200161239b9493929190615ded565b6040516020818303038152906040528051906020012060001c91506001816123c39190615e3b565b600760006101000a81548167ffffffffffffffff021916908367ffffffffffffffff16021790555060008067ffffffffffffffff81111561240757612406614ac2565b5b6040519080825280602002602001820160405280156124355781602001602082028036833780820191505090505b509050604051806060016040528060006bffffffffffffffffffffffff16815260200160006bffffffffffffffffffffffff168152602001600067ffffffffffffffff168152506006600085815260200190815260200160002060008201518160000160006101000a8154816bffffffffffffffffffffffff02191690836bffffffffffffffffffffffff160217905550602082015181600001600c6101000a8154816bffffffffffffffffffffffff02191690836bffffffffffffffffffffffff16021790555060408201518160000160186101000a81548167ffffffffffffffff021916908367ffffffffffffffff16021790555090505060405180606001604052803373ffffffffffffffffffffffffffffffffffffffff168152602001600073ffffffffffffffffffffffffffffffffffffffff168152602001828152506005600085815260200190815260200160002060008201518160000160006101000a81548173ffffffffffffffffffffffffffffffffffffffff021916908373ffffffffffffffffffffffffffffffffffffffff16021790555060208201518160010160006101000a81548173ffffffffffffffffffffffffffffffffffffffff021916908373ffffffffffffffffffffffffffffffffffffffff1602179055506040820151816002019080519060200190612634929190614827565b5090505061264c83600861421990919063ffffffff16565b50827f1d3015d7ba850fa198dc7b1a3f5d42779313a681035f77c8c03764c61005518d3360405161267d9190614f6a565b60405180910390a2505090565b612692613c53565b600260009054906101000a900473ffffffffffffffffffffffffffffffffffffffff1673ffffffffffffffffffffffffffffffffffffffff163373ffffffffffffffffffffffffffffffffffffffff1614612719576040517f44b0e3c300000000000000000000000000000000000000000000000000000000815260040160405180910390fd5b60208282905014612756576040517f8129bbcd00000000000000000000000000000000000000000000000000000000815260040160405180910390fd5b600082828101906127679190614e4f565b9050600073ffffffffffffffffffffffffffffffffffffffff166005600083815260200190815260200160002060000160009054906101000a900473ffffffffffffffffffffffffffffffffffffffff1673ffffffffffffffffffffffffffffffffffffffff1603612805576040517f1f6a65b600000000000000000000000000000000000000000000000000000000815260040160405180910390fd5b60006006600083815260200190815260200160002060000160009054906101000a90046bffffffffffffffffffffffff166bffffffffffffffffffffffff169050846006600084815260200190815260200160002060000160008282829054906101000a90046bffffffffffffffffffffffff166128839190615708565b92506101000a8154816bffffffffffffffffffffffff02191690836bffffffffffffffffffffffff16021790555084600a60008282829054906101000a90046bffffffffffffffffffffffff166128da9190615708565b92506101000a8154816bffffffffffffffffffffffff02191690836bffffffffffffffffffffffff160217905550817f1ced9348ff549fceab2ac57cd3a9de38edaaab274b725ee82c23e8fc8c4eec7a828784612937919061557e565b604051612945929190615381565b60405180910390a2505050505050565b61295d613ff9565b60006005600083815260200190815260200160002060000160009054906101000a900473ffffffffffffffffffffffffffffffffffffffff169050600073ffffffffffffffffffffffffffffffffffffffff168173ffffffffffffffffffffffffffffffffffffffff16036129fe576040517f1f6a65b600000000000000000000000000000000000000000000000000000000815260040160405180910390fd5b612a088282614233565b5050565b60606000612a1a600861448f565b9050808410612a55576040517f1390f2a100000000000000000000000000000000000000000000000000000000815260040160405180910390fd5b60008385612a63919061557e565b905081811180612a735750600084145b612a7d5780612a7f565b815b905060008582612a8f9190615508565b90508067ffffffffffffffff811115612aab57612aaa614ac2565b5b604051908082528060200260200182016040528015612ad95781602001602082028036833780820191505090505b50935060005b81811015612b3657612b068782612af6919061557e565b60086144a490919063ffffffff16565b858281518110612b1957612b186153aa565b5b60200260200101818152505080612b2f90615408565b9050612adf565b5050505092915050565b612b48613c53565b60006005600083815260200190815260200160002060000160009054906101000a900473ffffffffffffffffffffffffffffffffffffffff169050600073ffffffffffffffffffffffffffffffffffffffff168173ffffffffffffffffffffffffffffffffffffffff1603612be9576040517f1f6a65b600000000000000000000000000000000000000000000000000000000815260040160405180910390fd5b3373ffffffffffffffffffffffffffffffffffffffff166005600084815260200190815260200160002060010160009054906101000a900473ffffffffffffffffffffffffffffffffffffffff1673ffffffffffffffffffffffffffffffffffffffff1614612cc5576005600083815260200190815260200160002060010160009054906101000a900473ffffffffffffffffffffffffffffffffffffffff166040517fd084e975000000000000000000000000000000000000000000000000000000008152600401612cbc9190614f6a565b60405180910390fd5b336005600084815260200190815260200160002060000160006101000a81548173ffffffffffffffffffffffffffffffffffffffff021916908373ffffffffffffffffffffffffffffffffffffffff16021790555060006005600084815260200190815260200160002060010160006101000a81548173ffffffffffffffffffffffffffffffffffffffff021916908373ffffffffffffffffffffffffffffffffffffffff160217905550817fd4114ab6e9af9f597c52041f32d62dc57c5c4e4c0d4427006069635e216c93868233604051612da2929190615e77565b60405180910390a25050565b81612db881613b3e565b612dc0613c53565b6000600460008473ffffffffffffffffffffffffffffffffffffffff1673ffffffffffffffffffffffffffffffffffffffff168152602001908152602001600020600085815260200190815260200160002090508060000160009054906101000a900460ff1615612e315750612f47565b6000600560008681526020019081526020016000206002019050606461ffff16818054905003612e8d576040517f05a48e0f00000000000000000000000000000000000000000000000000000000815260040160405180910390fd5b60018260000160006101000a81548160ff02191690831515021790555080849080600181540180825580915050600190039060005260206000200160009091909190916101000a81548173ffffffffffffffffffffffffffffffffffffffff021916908373ffffffffffffffffffffffffffffffffffffffff160217905550847f1e980d04aa7648e205713e5e8ea3808672ac163d10936d36f91b2c88ac1575e185604051612f3c9190614f6a565b60405180910390a250505b505050565b81612f5681613b3e565b8282612f628282611db0565b612fa55781816040517f79bfd401000000000000000000000000000000000000000000000000000000008152600401612f9c9291906158d1565b60405180910390fd5b612fad613c53565b600460008573ffffffffffffffffffffffffffffffffffffffff1673ffffffffffffffffffffffffffffffffffffffff168152602001908152602001600020600086815260200190815260200160002060000160009054906101000a900460ff166130515784846040517f79bfd4010000000000000000000000000000000000000000000000000000000081526004016130489291906158d1565b60405180910390fd5b6000600560008781526020019081526020016000206002018054806020026020016040519081016040528092919081815260200182805480156130e957602002820191906000526020600020905b8160009054906101000a900473ffffffffffffffffffffffffffffffffffffffff1673ffffffffffffffffffffffffffffffffffffffff168152602001906001019080831161309f575b505050505090506000600182516131009190615508565b905060005b825181101561325d578673ffffffffffffffffffffffffffffffffffffffff16838281518110613138576131376153aa565b5b602002602001015173ffffffffffffffffffffffffffffffffffffffff160361324c5760008383815181106131705761316f6153aa565b5b6020026020010151905080600560008b815260200190815260200160002060020183815481106131a3576131a26153aa565b5b9060005260206000200160006101000a81548173ffffffffffffffffffffffffffffffffffffffff021916908373ffffffffffffffffffffffffffffffffffffffff160217905550600560008a815260200190815260200160002060020180548061321157613210615ea0565b5b6001900381819060005260206000200160006101000a81549073ffffffffffffffffffffffffffffffffffffffff021916905590555061325d565b8061325690615408565b9050613105565b506000600460008873ffffffffffffffffffffffffffffffffffffffff1673ffffffffffffffffffffffffffffffffffffffff168152602001908152602001600020600089815260200190815260200160002060000160006101000a81548160ff021916908315150217905550867f32158c6058347c1601b2d12bc696ac6901d8a9a9aa3ba10c27ab0a983e8425a7876040516132fa9190614f6a565b60405180910390a250505050505050565b8161331581613b3e565b61331d613c53565b60006005600085815260200190815260200160002090508273ffffffffffffffffffffffffffffffffffffffff168160010160009054906101000a900473ffffffffffffffffffffffffffffffffffffffff1673ffffffffffffffffffffffffffffffffffffffff161461340957828160010160006101000a81548173ffffffffffffffffffffffffffffffffffffffff021916908373ffffffffffffffffffffffffffffffffffffffff160217905550837f21a4dad170a6bf476c31bbcf4a16628295b0e450672eec25d7c93308e05344a13385604051613400929190615e77565b60405180910390a25b50505050565b60008060008060606005600087815260200190815260200160002060000160009054906101000a900473ffffffffffffffffffffffffffffffffffffffff169150600073ffffffffffffffffffffffffffffffffffffffff168273ffffffffffffffffffffffffffffffffffffffff16036134b6576040517f1f6a65b600000000000000000000000000000000000000000000000000000000815260040160405180910390fd5b6006600087815260200190815260200160002060000160009054906101000a90046bffffffffffffffffffffffff1660066000888152602001908152602001600020600001600c9054906101000a90046bffffffffffffffffffffffff166006600089815260200190815260200160002060000160189054906101000a900467ffffffffffffffff1684600560008b8152602001908152602001600020600201808054806020026020016040519081016040528092919081815260200182805480156135d757602002820191906000526020600020905b8160009054906101000a900473ffffffffffffffffffffffffffffffffffffffff1673ffffffffffffffffffffffffffffffffffffffff168152602001906001019080831161358d575b505050505090509450945094509450945091939590929450565b7f000000000000000000000000000000000000000000000000000000000000000081565b61361d613ff9565b600073ffffffffffffffffffffffffffffffffffffffff16600260009054906101000a900473ffffffffffffffffffffffffffffffffffffffff1673ffffffffffffffffffffffffffffffffffffffff16036136a5576040517fc1f0c0a100000000000000000000000000000000000000000000000000000000815260040160405180910390fd5b6000600260009054906101000a900473ffffffffffffffffffffffffffffffffffffffff1673ffffffffffffffffffffffffffffffffffffffff166370a08231306040518263ffffffff1660e01b81526004016137029190614f6a565b602060405180830381865afa15801561371f573d6000803e3d6000fd5b505050506040513d601f19601f820116820180604052508101906137439190615ee4565b90506000600a60009054906101000a90046bffffffffffffffffffffffff166bffffffffffffffffffffffff169050818111156137b95780826040517fa99da3020000000000000000000000000000000000000000000000000000000081526004016137b0929190615381565b60405180910390fd5b818110156138e257600081836137cf9190615508565b9050600260009054906101000a900473ffffffffffffffffffffffffffffffffffffffff1673ffffffffffffffffffffffffffffffffffffffff1663a9059cbb85836040518363ffffffff1660e01b815260040161382e929190615f11565b6020604051808303816000875af115801561384d573d6000803e3d6000fd5b505050506040513d601f19601f8201168201806040525081019061387191906157dd565b6138a7576040517f7c07fc4c00000000000000000000000000000000000000000000000000000000815260040160405180910390fd5b7f59bfc682b673f8cbf945f1e454df9334834abf7dfe7f92237ca29ecb9b43660084826040516138d8929190615f11565b60405180910390a1505b505050565b6138ef613ff9565b6138f8816144be565b50565b60006006600083815260200190815260200160002090508215613a2a57600081600001600c9054906101000a90046bffffffffffffffffffffffff169050846bffffffffffffffffffffffff16816bffffffffffffffffffffffff16101561398f576040517ff4d678b800000000000000000000000000000000000000000000000000000000815260040160405180910390fd5b848161399b9190615748565b82600001600c6101000a8154816bffffffffffffffffffffffff02191690836bffffffffffffffffffffffff16021790555084600b600c8282829054906101000a90046bffffffffffffffffffffffff166139f69190615708565b92506101000a8154816bffffffffffffffffffffffff02191690836bffffffffffffffffffffffff16021790555050613b38565b60008160000160009054906101000a90046bffffffffffffffffffffffff169050846bffffffffffffffffffffffff16816bffffffffffffffffffffffff161015613aa1576040517ff4d678b800000000000000000000000000000000000000000000000000000000815260040160405180910390fd5b8481613aad9190615748565b8260000160006101000a8154816bffffffffffffffffffffffff02191690836bffffffffffffffffffffffff16021790555084600b60008282829054906101000a90046bffffffffffffffffffffffff16613b089190615708565b92506101000a8154816bffffffffffffffffffffffff02191690836bffffffffffffffffffffffff160217905550505b50505050565b60006005600083815260200190815260200160002060000160009054906101000a900473ffffffffffffffffffffffffffffffffffffffff169050600073ffffffffffffffffffffffffffffffffffffffff168173ffffffffffffffffffffffffffffffffffffffff1603613bdf576040517f1f6a65b600000000000000000000000000000000000000000000000000000000815260040160405180910390fd5b8073ffffffffffffffffffffffffffffffffffffffff163373ffffffffffffffffffffffffffffffffffffffff1614613c4f57806040517fd8a3fb52000000000000000000000000000000000000000000000000000000008152600401613c469190614f6a565b60405180910390fd5b5050565b600c60000160069054906101000a900460ff1615613c9d576040517fed3ba6a600000000000000000000000000000000000000000000000000000000815260040160405180910390fd5b565b60008060006005600085815260200190815260200160002060020190506006600085815260200190815260200160002060000160009054906101000a90046bffffffffffffffffffffffff16925060066000858152602001908152602001600020600001600c9054906101000a90046bffffffffffffffffffffffff16915060008180549050905060005b81811015613e1d5760046000848381548110613d4957613d486153aa565b5b9060005260206000200160009054906101000a900473ffffffffffffffffffffffffffffffffffffffff1673ffffffffffffffffffffffffffffffffffffffff1673ffffffffffffffffffffffffffffffffffffffff1681526020019081526020016000206000878152602001908152602001600020600080820160006101000a81549060ff02191690556000820160016101000a81549067ffffffffffffffff02191690556000820160096101000a81549067ffffffffffffffff0219169055505080613e1690615408565b9050613d2a565b5060056000868152602001908152602001600020600080820160006101000a81549073ffffffffffffffffffffffffffffffffffffffff02191690556001820160006101000a81549073ffffffffffffffffffffffffffffffffffffffff0219169055600282016000613e9091906148b1565b505060066000868152602001908152602001600020600080820160006101000a8154906bffffffffffffffffffffffff021916905560008201600c6101000a8154906bffffffffffffffffffffffff02191690556000820160186101000a81549067ffffffffffffffff02191690555050613f158560086145ea90919063ffffffff16565b506000846bffffffffffffffffffffffff1614613f845783600a60008282829054906101000a90046bffffffffffffffffffffffff16613f559190615748565b92506101000a8154816bffffffffffffffffffffffff02191690836bffffffffffffffffffffffff1602179055505b6000836bffffffffffffffffffffffff1614613ff25782600a600c8282829054906101000a90046bffffffffffffffffffffffff16613fc39190615748565b92506101000a8154816bffffffffffffffffffffffff02191690836bffffffffffffffffffffffff1602179055505b5050915091565b60008054906101000a900473ffffffffffffffffffffffffffffffffffffffff1673ffffffffffffffffffffffffffffffffffffffff163373ffffffffffffffffffffffffffffffffffffffff1614614087576040517f08c379a000000000000000000000000000000000000000000000000000000000815260040161407e90615f86565b60405180910390fd5b565b6140916148d2565b600083839050036140b557604051806020016040528060001515815250905061417b565b7f92fd13387c7fe7befbc38d303d6468778fb9731bc4583f17d92989c6fcfdeaaa7bffffffffffffffffffffffffffffffffffffffffffffffffffffffff19168383906141029190615fdd565b7bffffffffffffffffffffffffffffffffffffffffffffffffffffffff191614614158576040517f5247fdce00000000000000000000000000000000000000000000000000000000815260040160405180910390fd5b8282600490809261416b93929190616046565b81019061417891906160d7565b90505b92915050565b60607f92fd13387c7fe7befbc38d303d6468778fb9731bc4583f17d92989c6fcfdeaaa826040516024016141b5919061612f565b604051602081830303815290604052907bffffffffffffffffffffffffffffffffffffffffffffffffffffffff19166020820180517bffffffffffffffffffffffffffffffffffffffffffffffffffffffff83818316178352505050509050919050565b600061422b836000018360001b614604565b905092915050565b60008061423f84613c9f565b91509150600073ffffffffffffffffffffffffffffffffffffffff16600260009054906101000a900473ffffffffffffffffffffffffffffffffffffffff1673ffffffffffffffffffffffffffffffffffffffff16141580156142b157506000826bffffffffffffffffffffffff1614155b1561439b57600260009054906101000a900473ffffffffffffffffffffffffffffffffffffffff1673ffffffffffffffffffffffffffffffffffffffff1663a9059cbb84846bffffffffffffffffffffffff166040518363ffffffff1660e01b8152600401614321929190615f11565b6020604051808303816000875af1158015614340573d6000803e3d6000fd5b505050506040513d601f19601f8201168201806040525081019061436491906157dd565b61439a576040517ff4d678b800000000000000000000000000000000000000000000000000000000815260040160405180910390fd5b5b60008373ffffffffffffffffffffffffffffffffffffffff16826bffffffffffffffffffffffff166040516143cf9061568b565b60006040518083038185875af1925050503d806000811461440c576040519150601f19603f3d011682016040523d82523d6000602084013e614411565b606091505b505090508061444c576040517f950b247900000000000000000000000000000000000000000000000000000000815260040160405180910390fd5b847f8c74ce8b8cf87f5eb001275c8be27eb34ea2b62bfab6814fcc62192bb63e81c4858585604051614480939291906156d1565b60405180910390a25050505050565b600061449d82600001614674565b9050919050565b60006144b38360000183614685565b60001c905092915050565b3373ffffffffffffffffffffffffffffffffffffffff168173ffffffffffffffffffffffffffffffffffffffff160361452c576040517f08c379a000000000000000000000000000000000000000000000000000000000815260040161452390616196565b60405180910390fd5b80600160006101000a81548173ffffffffffffffffffffffffffffffffffffffff021916908373ffffffffffffffffffffffffffffffffffffffff1602179055508073ffffffffffffffffffffffffffffffffffffffff1660008054906101000a900473ffffffffffffffffffffffffffffffffffffffff1673ffffffffffffffffffffffffffffffffffffffff167fed8889f560326eb138920d842192f0eb3dd22b4f139c87a2c57538e05bae127860405160405180910390a350565b60006145fc836000018360001b6146b0565b905092915050565b600061461083836147c4565b61466957826000018290806001815401808255809150506001900390600052602060002001600090919091909150558260000180549050836001016000848152602001908152602001600020819055506001905061466e565b600090505b92915050565b600081600001805490509050919050565b600082600001828154811061469d5761469c6153aa565b5b9060005260206000200154905092915050565b600080836001016000848152602001908152602001600020549050600081146147b85760006001826146e29190615508565b90506000600186600001805490506146fa9190615508565b905081811461476957600086600001828154811061471b5761471a6153aa565b5b906000526020600020015490508087600001848154811061473f5761473e6153aa565b5b90600052602060002001819055508387600101600083815260200190815260200160002081905550505b8560000180548061477d5761477c615ea0565b5b6001900381819060005260206000200160009055905585600101600086815260200190815260200160002060009055600193505050506147be565b60009150505b92915050565b600080836001016000848152602001908152602001600020541415905092915050565b5080546147f390615350565b6000825580601f106148055750614824565b601f01602090049060005260206000209081019061482391906148e7565b5b50565b8280548282559060005260206000209081019282156148a0579160200282015b8281111561489f5782518260006101000a81548173ffffffffffffffffffffffffffffffffffffffff021916908373ffffffffffffffffffffffffffffffffffffffff16021790555091602001919060010190614847565b5b5090506148ad91906148e7565b5090565b50805460008255906000526020600020908101906148cf91906148e7565b50565b60405180602001604052806000151581525090565b5b808211156149005760008160009055506001016148e8565b5090565b600061ffff82169050919050565b61491b81614904565b82525050565b600063ffffffff82169050919050565b61493a81614921565b82525050565b60008115159050919050565b61495581614940565b82525050565b600060ff82169050919050565b6149718161495b565b82525050565b60006101208201905061498d600083018c614912565b61499a602083018b614931565b6149a7604083018a61494c565b6149b46060830189614931565b6149c16080830188614931565b6149ce60a0830187614931565b6149db60c0830186614931565b6149e860e0830185614968565b6149f6610100830184614968565b9a9950505050505050505050565b6000604051905090565b600080fd5b600080fd5b6000819050919050565b614a2b81614a18565b8114614a3657600080fd5b50565b600081359050614a4881614a22565b92915050565b600073ffffffffffffffffffffffffffffffffffffffff82169050919050565b6000614a7982614a4e565b9050919050565b614a8981614a6e565b8114614a9457600080fd5b50565b600081359050614aa681614a80565b92915050565b600080fd5b6000601f19601f8301169050919050565b7f4e487b7100000000000000000000000000000000000000000000000000000000600052604160045260246000fd5b614afa82614ab1565b810181811067ffffffffffffffff82111715614b1957614b18614ac2565b5b80604052505050565b6000614b2c614a04565b9050614b388282614af1565b919050565b600067ffffffffffffffff821115614b5857614b57614ac2565b5b602082029050602081019050919050565b600080fd5b6000614b81614b7c84614b3d565b614b22565b90508083825260208201905060208402830185811115614ba457614ba3614b69565b5b835b81811015614bcd5780614bb98882614a39565b845260208401935050602081019050614ba6565b5050509392505050565b600082601f830112614bec57614beb614aac565b5b8135614bfc848260208601614b6e565b91505092915050565b600080600060608486031215614c1e57614c1d614a0e565b5b6000614c2c86828701614a39565b9350506020614c3d86828701614a97565b925050604084013567ffffffffffffffff811115614c5e57614c5d614a13565b5b614c6a86828701614bd7565b9150509250925092565b60008060408385031215614c8b57614c8a614a0e565b5b6000614c9985828601614a39565b9250506020614caa85828601614a97565b9150509250929050565b60008060408385031215614ccb57614cca614a0e565b5b6000614cd985828601614a39565b9250506020614cea85828601614a39565b9150509250929050565b6000819050919050565b614d0781614cf4565b82525050565b6000602082019050614d226000830184614cfe565b92915050565b60006bffffffffffffffffffffffff82169050919050565b614d4981614d28565b82525050565b6000602082019050614d646000830184614d40565b92915050565b6000819050919050565b6000614d8f614d8a614d8584614a4e565b614d6a565b614a4e565b9050919050565b6000614da182614d74565b9050919050565b6000614db382614d96565b9050919050565b614dc381614da8565b82525050565b6000602082019050614dde6000830184614dba565b92915050565b6000614def82614a4e565b9050919050565b614dff81614de4565b8114614e0a57600080fd5b50565b600081359050614e1c81614df6565b92915050565b600060208284031215614e3857614e37614a0e565b5b6000614e4684828501614e0d565b91505092915050565b600060208284031215614e6557614e64614a0e565b5b6000614e7384828501614a39565b91505092915050565b6000602082019050614e91600083018461494c565b92915050565b600060208284031215614ead57614eac614a0e565b5b6000614ebb84828501614a97565b91505092915050565b6000602082019050614ed96000830184614912565b92915050565b60008060408385031215614ef657614ef5614a0e565b5b6000614f0485828601614a97565b9250506020614f1585828601614a97565b9150509250929050565b6000614f2a82614d96565b9050919050565b614f3a81614f1f565b82525050565b6000602082019050614f556000830184614f31565b92915050565b614f6481614a6e565b82525050565b6000602082019050614f7f6000830184614f5b565b92915050565b600080fd5b600060c08284031215614fa057614f9f614f85565b5b81905092915050565b600060208284031215614fbf57614fbe614a0e565b5b600082013567ffffffffffffffff811115614fdd57614fdc614a13565b5b614fe984828501614f8a565b91505092915050565b614ffb81614a18565b82525050565b60006020820190506150166000830184614ff2565b92915050565b600067ffffffffffffffff82169050919050565b6150398161501c565b82525050565b60006020820190506150546000830184615030565b92915050565b600080fd5b60008083601f84011261507557615074614aac565b5b8235905067ffffffffffffffff8111156150925761509161505a565b5b6020830191508360018202830111156150ae576150ad614b69565b5b9250929050565b600080600080606085870312156150cf576150ce614a0e565b5b60006150dd87828801614a97565b94505060206150ee87828801614a39565b935050604085013567ffffffffffffffff81111561510f5761510e614a13565b5b61511b8782880161505f565b925092505092959194509250565b600081519050919050565b600082825260208201905092915050565b6000819050602082019050919050565b61515e81614a18565b82525050565b60006151708383615155565b60208301905092915050565b6000602082019050919050565b600061519482615129565b61519e8185615134565b93506151a983615145565b8060005b838110156151da5781516151c18882615164565b97506151cc8361517c565b9250506001810190506151ad565b5085935050505092915050565b600060208201905081810360008301526152018184615189565b905092915050565b600081519050919050565b600082825260208201905092915050565b6000819050602082019050919050565b61523e81614a6e565b82525050565b60006152508383615235565b60208301905092915050565b6000602082019050919050565b600061527482615209565b61527e8185615214565b935061528983615225565b8060005b838110156152ba5781516152a18882615244565b97506152ac8361525c565b92505060018101905061528d565b5085935050505092915050565b600060a0820190506152dc6000830188614d40565b6152e96020830187614d40565b6152f66040830186615030565b6153036060830185614f5b565b81810360808301526153158184615269565b90509695505050505050565b7f4e487b7100000000000000000000000000000000000000000000000000000000600052602260045260246000fd5b6000600282049050600182168061536857607f821691505b60208210810361537b5761537a615321565b5b50919050565b60006040820190506153966000830185614ff2565b6153a36020830184614ff2565b9392505050565b7f4e487b7100000000000000000000000000000000000000000000000000000000600052603260045260246000fd5b7f4e487b7100000000000000000000000000000000000000000000000000000000600052601160045260246000fd5b600061541382614a18565b91507fffffffffffffffffffffffffffffffffffffffffffffffffffffffffffffffff8203615445576154446153d9565b5b600182019050919050565b60006040820190506154656000830185614ff2565b81810360208301526154778184615189565b90509392505050565b600081519050919050565b600081905092915050565b60005b838110156154b4578082015181840152602081019050615499565b60008484015250505050565b60006154cb82615480565b6154d5818561548b565b93506154e5818560208601615496565b80840191505092915050565b60006154fd82846154c0565b915081905092915050565b600061551382614a18565b915061551e83614a18565b9250828203905081811115615536576155356153d9565b5b92915050565b600061554782614a18565b915061555283614a18565b925082820261556081614a18565b91508282048414831517615577576155766153d9565b5b5092915050565b600061558982614a18565b915061559483614a18565b92508282019050808211156155ac576155ab6153d9565b5b92915050565b7f4e487b7100000000000000000000000000000000000000000000000000000000600052601260045260246000fd5b60006155ec82614a18565b91506155f783614a18565b925082615607576156066155b2565b5b828204905092915050565b600060a0820190506156276000830188614ff2565b6156346020830187614d40565b615641604083018661494c565b61564e606083018561494c565b61565b608083018461494c565b9695505050505050565b50565b600061567560008361548b565b915061568082615665565b600082019050919050565b600061569682615668565b9150819050919050565b60006156bb6156b66156b184614d28565b614d6a565b614a18565b9050919050565b6156cb816156a0565b82525050565b60006060820190506156e66000830186614f5b565b6156f360208301856156c2565b61570060408301846156c2565b949350505050565b600061571382614d28565b915061571e83614d28565b925082820190506bffffffffffffffffffffffff811115615742576157416153d9565b5b92915050565b600061575382614d28565b915061575e83614d28565b925082820390506bffffffffffffffffffffffff811115615782576157816153d9565b5b92915050565b600060408201905061579d6000830185614f5b565b6157aa60208301846156c2565b9392505050565b6157ba81614940565b81146157c557600080fd5b50565b6000815190506157d7816157b1565b92915050565b6000602082840312156157f3576157f2614a0e565b5b6000615801848285016157c8565b91505092915050565b600082825260208201905092915050565b7f4d7573742062652070726f706f736564206f776e657200000000000000000000600082015250565b600061585160168361580a565b915061585c8261581b565b602082019050919050565b6000602082019050818103600083015261588081615844565b9050919050565b600061589282614d96565b9050919050565b6158a281615887565b82525050565b60006040820190506158bd6000830185615899565b6158ca6020830184614ff2565b9392505050565b60006040820190506158e66000830185614ff2565b6158f36020830184614f5b565b9392505050565b600080fd5b600080fd5b600080fd5b60008083356001602003843603038112615926576159256158fa565b5b80840192508235915067ffffffffffffffff821115615948576159476158ff565b5b60208301925060018202360383131561596457615963615904565b5b509250929050565b61597581614921565b811461598057600080fd5b50565b6000813590506159928161596c565b92915050565b6000602082840312156159ae576159ad614a0e565b5b60006159bc84828501615983565b91505092915050565b60008190508160005260206000209050919050565b60006020601f8301049050919050565b600082821b905092915050565b600060088302615a277fffffffffffffffffffffffffffffffffffffffffffffffffffffffffffffffff826159ea565b615a3186836159ea565b95508019841693508086168417925050509392505050565b6000615a64615a5f615a5a84614a18565b614d6a565b614a18565b9050919050565b6000819050919050565b615a7e83615a49565b615a92615a8a82615a6b565b8484546159f7565b825550505050565b600090565b615aa7615a9a565b615ab2818484615a75565b505050565b5b81811015615ad657615acb600082615a9f565b600181019050615ab8565b5050565b601f821115615b1b57615aec816159c5565b615af5846159da565b81016020851015615b04578190505b615b18615b10856159da565b830182615ab7565b50505b505050565b600082821c905092915050565b6000615b3e60001984600802615b20565b1980831691505092915050565b6000615b578383615b2d565b9150826002028217905092915050565b615b7082615480565b67ffffffffffffffff811115615b8957615b88614ac2565b5b615b938254615350565b615b9e828285615ada565b600060209050601f831160018114615bd15760008415615bbf578287015190505b615bc98582615b4b565b865550615c31565b601f198416615bdf866159c5565b60005b82811015615c0757848901518255600182019150602085019450602081019050615be2565b86831015615c245784890151615c20601f891682615b2d565b8355505b6001600288020188555050505b505050505050565b615c4281614904565b8114615c4d57600080fd5b50565b600081359050615c5f81615c39565b92915050565b600060208284031215615c7b57615c7a614a0e565b5b6000615c8984828501615c50565b91505092915050565b600082825260208201905092915050565b6000615cae82615480565b615cb88185615c92565b9350615cc8818560208601615496565b615cd181614ab1565b840191505092915050565b600060c082019050615cf16000830189614ff2565b615cfe6020830188614ff2565b615d0b6040830187614912565b615d186060830186614931565b615d256080830185614931565b81810360a0830152615d378184615ca3565b9050979650505050505050565b60008160601b9050919050565b6000615d5c82615d44565b9050919050565b6000615d6e82615d51565b9050919050565b615d86615d8182614a6e565b615d63565b82525050565b6000819050919050565b6000819050919050565b615db1615dac82615d8c565b615d96565b82525050565b60008160c01b9050919050565b6000615dcf82615db7565b9050919050565b615de7615de28261501c565b615dc4565b82525050565b6000615df98287615d75565b601482019150615e098286615da0565b602082019150615e198285615d75565b601482019150615e298284615dd6565b60088201915081905095945050505050565b6000615e468261501c565b9150615e518361501c565b9250828201905067ffffffffffffffff811115615e7157615e706153d9565b5b92915050565b6000604082019050615e8c6000830185614f5b565b615e996020830184614f5b565b9392505050565b7f4e487b7100000000000000000000000000000000000000000000000000000000600052603160045260246000fd5b600081519050615ede81614a22565b92915050565b600060208284031215615efa57615ef9614a0e565b5b6000615f0884828501615ecf565b91505092915050565b6000604082019050615f266000830185614f5b565b615f336020830184614ff2565b9392505050565b7f4f6e6c792063616c6c61626c65206279206f776e657200000000000000000000600082015250565b6000615f7060168361580a565b9150615f7b82615f3a565b602082019050919050565b60006020820190508181036000830152615f9f81615f63565b9050919050565b600082905092915050565b60007fffffffff0000000000000000000000000000000000000000000000000000000082169050919050565b6000615fe98383615fa6565b82615ff48135615fb1565b925060048210156160345761602f7fffffffff00000000000000000000000000000000000000000000000000000000836004036008026159ea565b831692505b505092915050565b600080fd5b600080fd5b6000808585111561605a5761605961603c565b5b8386111561606b5761606a616041565b5b6001850283019150848603905094509492505050565b600080fd5b600081359050616095816157b1565b92915050565b6000602082840312156160b1576160b0616081565b5b6160bb6020614b22565b905060006160cb84828501616086565b60008301525092915050565b6000602082840312156160ed576160ec614a0e565b5b60006160fb8482850161609b565b91505092915050565b61610d81614940565b82525050565b6020820160008201516161296000850182616104565b50505050565b60006020820190506161446000830184616113565b92915050565b7f43616e6e6f74207472616e7366657220746f2073656c66000000000000000000600082015250565b600061618060178361580a565b915061618b8261614a565b602082019050919050565b600060208201905081810360008301526161af81616173565b905091905056fea264697066735822122026fdc5d20befc773734ac96530f3215ece45c8b77b0339698511f501ee7d48a564736f6c63430008130033","linkReferences":{}},"methodIdentifiers":{"LINK()":"1b6b6d23","LINK_NATIVE_FEED()":"72e9d565","MAX_CONSUMERS()":"64d51a2a","acceptOwnership()":"79ba5097","acceptSubscriptionOwnerTransfer(uint256)":"b2a7cac5","addConsumer(uint256,address)":"bec4c08c","cancelSubscription(uint256,address)":"0ae09540","consumerIsAdded(uint256,address)":"953e9c75","createSubscription()":"a21a23e4","fulfillRandomWords(uint256,address)":"808974ff","fulfillRandomWordsWithOverride(uint256,address,uint256[])":"08e3898e","fundSubscription(uint256,uint256)":"115e3c0d","fundSubscriptionWithNative(uint256)":"95b55cfc","getActiveSubscriptionIds(uint256,uint256)":"aefb212f","getSubscription(uint256)":"dc311dd3","i_base_fee()":"1eebc117","i_gas_price()":"dcab3dcf","i_wei_per_unit_link()":"13478329","onTokenTransfer(address,uint256,bytes)":"a4c0ed36","owner()":"8da5cb5b","ownerCancelSubscription(uint256)":"aa433aff","pendingRequestExists(uint256)":"41af6c87","recoverFunds(address)":"e72f6e30","recoverNativeFunds(address)":"8402595e","removeConsumer(uint256,address)":"cb631797","requestRandomWords((bytes32,uint256,uint16,uint32,uint32,bytes))":"9b1c385e","requestSubscriptionOwnerTransfer(uint256,address)":"dac83d29","s_config()":"088070f5","s_currentSubNonce()":"9d40a6fd","s_totalBalance()":"86fe91c7","s_totalNativeBalance()":"18e3dd27","setConfig()":"8b673e7a","setLINKAndLINKNativeFeed(address,address)":"65982744","transferOwnership(address)":"f2fde38b","withdraw(address)":"51cff8d9","withdrawNative(address)":"2f622e6b"},"id":13}